:020000040800F2
:1000000048400120A1020008DD020008DF020008CC
:10001000E1020008E3020008E50200080000000019
:10002000000000000000000000000000E7020008DF
:10003000E902000800000000EB020008C54A0008C1
:10004000EF020008EF020008EF020008EF020008CC
:10005000EF020008EF020008EF020008EF020008BC
:10006000EF020008EF020008EF020008EF020008AC
:10007000EF020008EF020008EF020008EF0200089C
:10008000EF020008EF020008EF020008EF0200088C
:10009000EF020008EF020008EF020008EF0200087C
:1000A000EF020008EF020008EF020008EF0200086C
:1000B000EF020008EF020008EF020008EF0200085C
:1000C000EF020008EF020008EF020008EF0200084C
:1000D000EF020008EF020008EF020008EF0200083C
:1000E000EF020008EF020008EF020008EF0200082C
:1000F000EF020008EF020008EF020008EF0200081C
:10010000EF020008EF020008EF020008EF0200080B
:10011000EF020008EF020008EF020008EF020008FB
:10012000EF020008EF020008EF020008EF020008EB
:10013000EF020008EF020008EF020008EF020008DB
:10014000EF020008EF020008EF020008EF020008CB
:10015000EF020008EF020008EF020008EF020008BB
:10016000EF020008EF020008EF020008EF020008AB
:10017000EF020008EF020008EF0200080000000094
:10018000EF020008EF02000800F002F800F05EF84D
:100190000AA090E8000C82448344AAF10107DA45E2
:1001A00001D100F053F8AFF2090EBAE80F0013F0D6
:1001B000010F18BFFB1A43F001031847345A00001F
:1001C000545A00000A444FF0000C10F8013B13F0A1
:1001D000070408BF10F8014B1D1108BF10F8015BA0
:1001E000641E05D010F8016B641E01F8016BF9D193
:1001F00013F0080F1EBF10F8014BAD1C0C1B09D1EA
:100200006D1E58BF01F801CBFAD505E014F8016B5B
:1002100001F8016B6D1EF9D59142D6D370470000ED
:100220000023002400250026103A28BF78C1FBD8FF
:10023000520728BF30C148BF0B6070471FB505F09B
:10024000B9FC00F084F81FBD10B510BD00F08BF8AC
:100250001146FFF7F3FF05F035F800F0A9F803B4F5
:10026000FFF7F2FF03BC00F0B3F800000B49D1F830
:1002700000C04A685CF8043B1068184442F8040B5C
:100280008C4528BFA1F1DC0C8A4228BFA1F1DC0219
:10029000C1F800C04A6020F000407047E0390120FA
:1002A00016481749174B99423CBF50F8042B41F8A8
:1002B000042BF8D314494FF000028B4238BF43F8A7
:1002C000042BFAD3DFF84400016841F470010160A7
:1002D000BFF34F8FBFF36F8F0D480047FEE7FEE778
:1002E000FEE7FEE7FEE7FEE7FEE7FEE7FEE7FEE7E6
:1002F00008480949094A0A4B70470000105C000889
:1003000000000020280800204840012088ED00E07F
:1003100089010008483A012048400120483C01205A
:10032000483C01200B4910B5A1F17C020A4CC2E9FE
:100330003712372106E000EB104342F82130074B1B
:1003400000FB03400B1EA1F10101F4DC10BD0120F4
:10035000E8E7000080390120E119D666CD0D0100E3
:10036000704770477047754600F02CF8AE460500A0
:100370006946534620F00700854618B020B5FFF7C0
:10038000B7FFBDE820404FF000064FF000074FF0E8
:1003900000084FF0000B21F00701AC46ACE8C009A3
:1003A000ACE8C009ACE8C009ACE8C0098D467047AC
:1003B00010B50446AFF300802046BDE81040FFF7BB
:1003C0004EBF000000487047E83901207047000028
:1003D00001491820ABBEFEE72600020010B5FA481E
:1003E0008068FA490968884201D1012000E00020B4
:1003F000F549896BF54A1268914201D1012100E06B
:1004000000210840F049096AF04A1268914201D17E
:10041000012100E000210840EB49496AEB4A1268DB
:10042000914201D1012100E000210840E84909681A
:10043000012901D0012100E000210840D0B1E348AA
:100440000168E448C0F86C110120E1490860DF4808
:100450000068401EE04951F82000C01CDB490968D3
:10046000491EDD4A42F8210001220321D7480068D5
:1004700000F0E0FCD448406BD4490968884201D1BF
:10048000012000E00020D049C96CD04A1268914296
:1004900001D1012100E000210840CB49496ECB4A3F
:1004A0001268914201D1012100E000210840C649B3
:1004B000096DC64A1268914201D1012100E0002174
:1004C0000840C3494968012901D0012100E0002109
:1004D0000840D0B1BD480168BE48C0F80C110120E9
:1004E000BB494860B9480068401EBB4951F820002C
:1004F000C01CB6490968491EB74A42F821000222C9
:100500001146B248006800F095FCAF48806BAF49D7
:100510000968884201D1012000E00020AA49096D44
:10052000AA4A1268914201D1012100E0002108404D
:10053000A549896EA54A1268914201D1012100E0C6
:1005400000210840A049496DA04A1268914201D19A
:10055000012100E0002108409D498968012901D05E
:10056000012100E000210840D0B198480168994875
:10057000C0F87C1101209649886094480068401EAC
:10058000954951F82000C01C90490968491E924ABB
:1005900042F82100022203218C48006800F04AFC46
:1005A0008948C06B89490968884201D1012000E06F
:1005B00000208549496D854A1268914201D1012187
:1005C00000E0002108408049C96E804A12689142CB
:1005D00001D1012100E0002108407B49896D7B4A5F
:1005E0001268914201D1012100E0002108407849C0
:1005F000C968012901D0012100E000210840D0B1E3
:10060000724801687348C0F8EC1101207049C86055
:100610006E480068401E704951F82000C01C6B49AC
:100620000968491E6C4A42F82100022204216748E9
:10063000006800F0FFFB6448006E64490968884266
:1006400001D1012000E000205F49896F5F4A1268F4
:10065000914201D1012100E0002108405A49D1F81E
:1006600090105A4A1268914201D1012100E0002104
:1006700008405549C96F554A1268914201D101217C
:1006800000E00021084052490969012901D00121F7
:1006900000E000210840D0B14C4801684D48C0F846
:1006A000AC1001204A49086148480068401E4A4988
:1006B00051F82000C01C45490968491E464A42F8C5
:1006C0002100032201214148006800F0B3FB3E48AD
:1006D000406E3E490968884201D1012000E00020B7
:1006E0003949C96F394A1268914201D1012100E0AC
:1006F000002108403449D1F89410344A12689142DC
:1007000001D1012100E0002108402F49D1F88010DB
:100710002E4A1268914201D1012100E000210840D7
:100720002B494969012901D0012100E0002108403D
:10073000D0B1264801682748C0F81C11012024497F
:10074000486122480068401E234951F82000C01C1F
:100750001E490968491E204A42F82100032202214D
:100760001A48006800F066FB1748806E1749096850
:10077000884201D1012000E000201349D1F8801007
:10078000124A1268914201D1012100E00021084083
:100790000D49D1F898100D4A1268914201D10121FA
:1007A00000E0002108400849D1F88410074A126887
:1007B000914201D1012100E00021084004498969EA
:1007C00001290BD001210AE0EC3401203402002081
:1007D00028340120F4350120D802002000210840EF
:1007E000D0B1FA480168FA48C0F88C110120F949E3
:1007F0008861F6480068401EF74951F82000C01C87
:10080000F2490968491EF44A42F8210003221146C0
:10081000EE48006800F00EFBF048C06EEB49096836
:10082000884201D1012000E00020EC49D1F8841079
:10083000E64A1268914201D1012100E000210840FE
:10084000E649D1F89C10E14A1268914201D1012198
:1008500000E000210840E149D1F88810DB4A126825
:10086000914201D1012100E000210840D949C96924
:10087000012901D0012100E000210840D0B1D34876
:100880000168D348C0F8FC110120D249C861CF48A3
:100890000068401ED04951F82000C01CCB490968AF
:1008A000491ECD4A42F8210003220421C7480068AE
:1008B00000F0C0FAC948006FC4490968884201D1F4
:1008C000012000E00020C549D1F88810BF4A126815
:1008D000914201D1012100E000210840BF49D1F837
:1008E000A010BA4A1268914201D1012100E0002112
:1008F0000840BA49D1F88C10B44A1268914201D12B
:10090000012100E000210840B249096A012901D013
:10091000012100E000210840D0B1AC480168AC489A
:10092000C0F86C120120AB490862A8480068401E5C
:10093000A94951F82000C01CA4490968491EA64ACB
:1009400042F8210003220521A048006800F072FA55
:10095000A248D0F894009D490968884201D101203D
:1009600000E000209D49D1F8AC10984A12689142ED
:1009700001D1012100E0002108409849D1F8C410BC
:10098000924A1268914201D1012100E00021084001
:100990009249D1F8B0108D4A1268914201D10121DB
:1009A00000E0002108408B49496A012901D001215A
:1009B00000E000210840D0B1844801688448C0F8B4
:1009C0002C1101208349486280480068401E8249FA
:1009D00051F82000C01C7D490968491E7E4A42F832
:1009E0002100042202217948006800F023FA7B48A4
:1009F000D0F8980075490968884201D1012000E0CB
:100A000000207649D1F8B010704A1268914201D1A5
:100A1000012100E0002108407049D1F8C8106B4A5C
:100A20001268914201D1012100E0002108406B4988
:100A3000D1F8B410654A1268914201D1012100E059
:100A4000002108406349896A012901D0012100E0A1
:100A500000210840D0B15D4801685D48C0F89C1194
:100A600001205C49886259480068401E5A4951F883
:100A70002000C01C55490968491E574A42F8210008
:100A8000042203215148006800F0D4F95348D0F8FB
:100A90009C004E490968884201D1012000E00020F5
:100AA0004E49D1F8B410494A1268914201D101214E
:100AB00000E0002108404949D1F8CC10434A1268AF
:100AC000914201D1012100E0002108404349D1F8C1
:100AD000B8103E4A1268914201D1012100E0002184
:100AE00008403C49C96A012901D0012100E00021E8
:100AF0000840D0B1354801683548C0F80C120120D3
:100B00003449C86231480068401E334951F820001A
:100B1000C01C2E490968491E2F4A42F821000422B0
:100B200011462A48006800F085F92C48D0F8C80022
:100B300026490968884201D1012000E000202749A8
:100B4000D1F8E010214A1268914201D1012100E060
:100B5000002108402149D1F8F8101C4A126891423E
:100B600001D1012100E0002108401C49D1F8E41026
:100B7000164A1268914201D1012100E0002108408B
:100B80001449096B012901D0012100E0002108402E
:100B9000D0B10E4801680E48C0F8AC1101200D49D3
:100BA00008630A480068401E0B4951F82000C01C29
:100BB00006490968491E084A42F821000522032116
:100BC0000248006800F036F910BD00003402002031
:100BD000F435012028340120D8020020EC34012013
:100BE00038B51D4800781D4C0090246804EB44047F
:100BF0001B4D05EB44141B4D2D6804EB0514E468F4
:100C0000631E164C246804EB4404154D05EB441494
:100C1000144D2D6804EB0514A468621C0F4C246865
:100C200004EB44040E4D05EB44140E4D2D6804EB0B
:100C300005146468611E094C246804EB4404084DE3
:100C400005EB4414074D2D6804EB05142468601C63
:100C500002F0F4FB38BD00001D0000204802002017
:100C6000080400204402002038B56B48006800EBFF
:100C700040006A4901EBC0006949096850F8210049
:100C8000012842D06448006800EB4000634901EB52
:100C9000C0006349096850F82100022835D0614836
:100CA00000785D4C0090246804EB44045E4D05EB35
:100CB00044145B4D2D6804EB0514E368564C24681E
:100CC00004EB4404584D05EB4414554D2D6804EBDA
:100CD0000514A268504C246804EB4404524D05EB03
:100CE00044144F4D2D6804EB051461684A4C246888
:100CF00004EB44044C4D05EB4414494D2D6804EBC2
:100D00000514206802F09AFB84E04348006800EB79
:100D10004000424901EBC0004149096850F82100F8
:100D2000012835D1414800783B4C0090246804EB01
:100D300044043D4D05EB4414394D2D6804EB051476
:100D4000E368354C246804EB4404374D05EB441448
:100D5000334D2D6804EB0514A2682F4C246804EB76
:100D60004404314D05EB44142D4D2D6804EB05145E
:100D70006168294C246804EB44042B4D05EB4414B2
:100D8000274D2D6804EB0514206802F057FB41E065
:100D90002148006800EB4000204901EBC0002049D9
:100DA000096850F82100022834D1214800781A4CF3
:100DB0000090246804EB44041B4D05EB4414184DCB
:100DC0002D6804EB0514E368134C246804EB440419
:100DD000154D05EB4414124D2D6804EB0514A26863
:100DE0000D4C246804EB44040F4D05EB44140C4DEA
:100DF0002D6804EB05146168074C246804EB440477
:100E0000094D05EB4414064D2D6804EB05142068CC
:100E100002F014FB38BD000048020020EC34012031
:100E200044020020180000200804002020000020B8
:100E3000210000202DE9F04107460C4615461226F8
:100E4000012F1AD1621E02EB42021A4B03EB02136E
:100E50006A1E03EBC20252689119621E02EB420243
:100E6000144B03EB02136A1E53F832209019124AF6
:100E700013780A2201F088FB19E0621E02EB42029D
:100E80000C4B03EB02136A1E03EBC202526891196A
:100E9000621E02EB4202074B03EB02136A1E53F879
:100EA00032209019054A13780A2201F06DFBBDE843
:100EB000F0810000E8020020200000202100002036
:100EC00030B59BB0FE4AD2E900109268CDE90C0221
:100ED0000B91FB4A0C32D2E900109268CDE909026D
:100EE0000891F74A183207CA05AB07C3F44A2432FF
:100EF000D2E900109268CDE9030202910024002596
:100F00008DE1F04850F8250048B9EF4800780EA967
:100F100041F825000020ED4941F825007EE1E9482F
:100F200050F8250001285AD1E94800780EA941F867
:100F30002500FFF79BF9032190FBF1F201FB120062
:100F4000441C0B98042801D0012000E000200C99DB
:100F5000042901D0012100E000210840D8B107E0B8
:100F6000FFF784F9032190FBF1F201FB1200441C0E
:100F70000B98A04201D1012000E000200C99A14271
:100F800001D1012100E0002108430028E8D1CF4829
:100F900040F8254042E10B98042801D0012000E0F0
:100FA00000200C99042901D1012100E00021084012
:100FB00080B107E0FFF75AF9032190FBF1F201FB42
:100FC0001200441C0B98A042F4D00C94BF4840F887
:100FD000254023E10B94BD4840F825401EE1B94867
:100FE00050F8250002285AD1BA4800780EA941F8D5
:100FF0002500FFF73BF9032190FBF1F201FB120002
:10100000441C0898042801D0012000E00020099920
:10101000042901D0012100E000210840D8B107E0F7
:10102000FFF724F9032190FBF1F201FB1200441CAD
:101030000898A04201D1012000E000200999A142B6
:1010400001D1012100E0002108430028E8D19F4898
:1010500040F82540E2E00898042801D0012000E093
:1010600000200999042901D1012100E00021084054
:1010700080B107E0FFF7FAF8032190FBF1F201FBE2
:101080001200441C0898A042F4D0904840F8254033
:101090000994C3E008948D4840F82540BEE0894893
:1010A00050F8250003285AD18B4800780EA941F842
:1010B0002500FFF7DBF8032190FBF1F201FB1200A2
:1010C000441C0298042801D0012000E0002003996C
:1010D000042901D0012100E000210840D8B107E037
:1010E000FFF7C4F8032190FBF1F201FB1200441C4E
:1010F0000298A04201D1012000E000200399A14202
:1011000001D1012100E0002108430028E8D16F4807
:1011100040F8254082E00298042801D0012000E038
:1011200000200399042901D1012100E00021084099
:1011300080B107E0FFF79AF8032190FBF1F201FB81
:101140001200441C0298A042F4D003945F4840F877
:10115000254063E002945D4840F825405EE0594830
:1011600050F82500042859D15C4800780EA941F8B0
:101170002500FFF77BF8032190FBF1F201FB120041
:10118000441C0598042801D0012000E000200699A5
:10119000042901D0012100E000210840D8B107E076
:1011A000FFF764F8032190FBF1F201FB1200441CED
:1011B0000598A04201D1012000E000200699A1423B
:1011C00001D1012100E0002108430028E8D13F4877
:1011D00040F8254022E00598042801D0012000E0D5
:1011E00000200699042901D1012100E000210840D6
:1011F00080B107E0FFF73AF8032190FBF1F201FB21
:101200001200441C0598A042F4D006942F4840F8E0
:10121000254003E005942D4840F825406D1C0D2D18
:10122000FFF66FAE0E98C0B26A2347228A21009063
:10123000672002F003F90F98C0B28E236B2266215B
:101240000090432002F0FAF81098C0B28E236B226F
:101250008A210090672002F0F1F81198C0B28E2325
:101260006B22AE2100908B2002F0E8F81298C0B2F9
:10127000B2238F22422100901F2002F0DFF8139842
:10128000C0B2B2238F2266210090432002F0D6F82C
:101290001498C0B2B2238F228A210090672002F0F6
:1012A000CDF81598C0B2B2238F22AE2100908B20CA
:1012B00002F0C4F81698C0B2B2238F22D2210FE0F8
:1012C000C05B00084C0200201700002080020020B4
:1012D000190000201B0000201F0000201E0000201D
:1012E0000090AF2002F0AAF81798C0B2D623B3221C
:1012F00066210090432002F0A1F81898C0B2D623CE
:10130000B3228A210090672002F098F81998C0B2A1
:10131000D623B322AE2100908B2002F08FF81A98CA
:10132000C0B2FA23D7228A210090672002F086F803
:101330001BB030BD38B545480078B4238D2220213C
:1013400000901D2002F07AF840480078D8236922E6
:1013500044210090412002F071F83C480078FC23C1
:10136000452268210090652002F068F8374800782F
:10137000FC2345228C210090892002F05FF833483D
:101380000078D8236922B0210090AD2002F056F8F1
:101390002E480078B4238D22D4210090D12002F071
:1013A0004DF82A480078482345228C21009065207A
:1013B00002F044F8254800786C236922B02100909F
:1013C000412002F03BF82148007890238D22D4215F
:1013D00000901D2002F032F81C480078B423B1229E
:1013E000D42100901D2002F029F818480078D82355
:1013F000D522B0210090412002F020F81348007857
:10140000FC23F9228C210090652002F017F80024BB
:1014100018E0002513E005EB45020D4B03EB02122B
:1014200002EBC402516805EB450203EB021252F8CD
:101430003400084A13780A2201F0A6F86D1C062D24
:10144000E9DB641C062CE4DB38BD0000180000203A
:10145000E8020020170000204948C06C40F001005D
:101460004749C8640846C06C40F00200C8644FF0A9
:101470009040006820F043404FF0904108600846DB
:10148000006840F0824008603E48006820F47C60BC
:101490003C4908600846006840F418600860394814
:1014A0002030006838490840364920310860084635
:1014B0000068364908433349203108604FF09040B6
:1014C000C06820F043404FF09041C8602D480C3078
:1014D000006820F47C602B490C31086008460068E5
:1014E00040F4886008604FF09040406820F410405D
:1014F0004FF0904148602348001D006820F03800FC
:101500002049091D0860081D006820F47C60091D41
:1015100008600846006840F47C6008604FF0904026
:10152000406940F480504FF09041486115481430B4
:10153000006840F00800134914310860084600684C
:1015400040F0100008604FF09040406920F40040E7
:101550004FF090414861002000E0401C0C49884257
:10156000FBDB4FF09040406940F400404FF0904169
:101570004861002000E0401C05498842FBDB7047C1
:101580000010024000040048FF0F0FFF0050500001
:10159000400D030070B54E480068012846D1002078
:1015A00041E000213CE000EB40024A4B03EBC20269
:1015B00052F82120012A32D100222EE0002329E016
:1015C0008418C4EBC404444D05EB0414CD1804EB9B
:1015D0000514E468022C1CD08418C4EBC4043E4DEE
:1015E00005EB0414CD1804EB0514A468641E3B4DF0
:1015F00055F82440641C8518C5EBC505364E06EB2E
:101600000515CE1805EB0615AD686D1E334E46F870
:1016100025405B1C022BD3DB521C022ACEDB491C6B
:101620000629C0DB401C0628BBDB49E028480068CF
:10163000022845D1002041E000213CE000EB4002BF
:10164000244B03EBC20252F82120022A32D100229D
:101650002EE0002329E08418C4EBC4041E4D05EBE2
:101660000414CD1804EB0514E468012C1CD0841874
:10167000C4EBC404184D05EB0414CD1804EB051499
:10168000A468641E164D55F82440641C8518C5EBEB
:10169000C505114E06EB0515CE1805EB0615AD6810
:1016A0006D1E0F4E46F825405B1C022BD3DB521CEF
:1016B000022ACEDB491C0629C0DB401C0628BBDB06
:1016C000012002F02DFC022002F02AFC70BD000077
:1016D000340200205C340120F4350120B4020020E3
:1016E000C40200203048C06C40F002002E49C8649B
:1016F0002E48006820F440502C49086008460068D5
:1017000020F4404008600846006840F4204008602B
:1017100026482030006820F070602449203108609D
:101720000846006820F0704008600846006840F0F5
:10173000806008600846006840F0804008601B48F0
:101740000830006820F44050184908310860084605
:10175000006820F4404008600846006840F470408B
:101760000860081F006820F04000091F0860084654
:10177000006820F0800008600846006840F0C00063
:1017800008600A480C30006820F4405007490C31CA
:1017900008600846006820F4404008600846006879
:1017A00040F4A04008607047001002400004004868
:1017B00052204449896D41F40011424A91654149E2
:1017C0008831096821F44051C2F888101146D1F8D7
:1017D000881041F48051C2F888101146896B41F499
:1017E000001191631146896B21F400119163364910
:1017F000096821F00101344A11601146096821F499
:10180000805111601146096821F470611160114620
:10181000096841F0800111601146096821F4003126
:101820001160111D096821F40061121D116011463B
:10183000096841F0007111601146096841F40041E6
:10184000116021491031096841F0E0411E4A10320F
:1018500011601146096841F4700111601146096870
:1018600041F4702111601146096841F4445111603E
:101870001146096841F038011160134908310968BF
:1018800021F40041104A08321160111D096821F449
:101890000041121D1160111F096821F48061121F9F
:1018A000116011460968014311601146096841F44D
:1018B000004111600449096841F00101024A1160C8
:1018C0007047000000100240005400402DE9F04134
:1018D0000446884617461D46002D00DD1FB94FF00F
:1018E000FF30BDE8F081204600F085F801232A464C
:1018F0004146204600F056F8002608E000BFA069E7
:1019000000F004000028FAD0606AB855761CAE4298
:10191000F4DB00BFA06900F040000028FAD02046A8
:1019200000F05EF80020DCE72DE9F041044688462F
:1019300017461D46002D00DD1FB94FF0FF30BDE8F2
:10194000F081204600F057F800232A464146204601
:1019500000F028F8002802DA4FF0FF30EFE7002609
:1019600008E000BFA06900F002000028FAD0B85DCE
:10197000A062761CAE42F4DB00BFA06900F040001C
:1019800020B9A06900F010000028F6D0A06900F08E
:10199000100010B14FF0FF30D1E7204600F020F8E2
:1019A0000020CCE770B504460D46002161680B4865
:1019B0000140012B02D141F4806101E021F48061FA
:1019C000C5F309004FF47F0606EA0246304301439F
:1019D00041F400516160002070BD0000009800FCDF
:1019E000416841F48041416000BF816901F02001FC
:1019F0000029FAD0704700BF816901F40041B1F5B8
:101A0000004FF9D070474FF09040406940F40040DB
:101A10004FF09041486170474FF09040406920F48A
:101A200000404FF090414861002000E0401C0D490B
:101A30008842FBDB4FF09040406920F480504FF02B
:101A400090414861002000E0401C06498842FBDBD1
:101A50004FF09040406940F400404FF090414861A1
:101A600070470000400D030010B5044660788028E0
:101A700021D1207880281ED1607901281BD1FB4913
:101A8000086800EBD0714910A0EB4101491CF74AEE
:101A9000116010460068012804D1FFF7E5F801F055
:101AA000F3FE14E2F14800680228FAD101F014FFB5
:101AB000FFF796F8F5E7607880286EDD20788028BB
:101AC0006BD1EA48006801284FD1E9480068022834
:101AD00010D1E848006808B9012000E00020E5497D
:101AE0000968052901D1012100E00021084308B15E
:101AF000012000E00020DE490968012910D1DD49FC
:101B00000968012900D100E00021DA4A1268042A9C
:101B100001D1012200E00022114309B1012100E0BE
:101B200000210843D249096889B9D24909680229C4
:101B300001D1012100E00021CE4A1268032A01D11F
:101B4000012200E00022114309B1012100E000213F
:101B500008430028A5D101F0BFFEC5480068401E1B
:101B6000C349086001F090FE9BE7C0480068022866
:101B700097D1C148006828B9C0480068042801D13D
:101B8000012000E00020BC490968012906D1BB49B9
:101B90000968022902D1012101E08FE000210843F8
:101BA000B5490968022904D1B449096809B9012174
:101BB00000E000210843B0490968032904D1AF4976
:101BC0000968012900D100E000210843AA490968F9
:101BD000042905D1A9490968032901D1012100E09F
:101BE00000210843A4490968052905D1A3490968CA
:101BF000052901D1012100E000210843B8B3FFF716
:101C000033F89D48006828B99C480068042801D131
:101C1000012000E0002098490968012905D1974971
:101C20000968022901D1012100E00021084350B1D7
:101C300091480068401C9049086090480068401E28
:101C40008E4908602DE08C480068032804D18B4839
:101C50000068012800D100E00020874909680429B4
:101C600006D186490968032902D1012101E01BE060
:101C70000021084380490968052905D17F49096881
:101C8000052901D1012100E00021084348B17A482B
:101C90000068401E7849086078480068401E77490F
:101CA0000860FEF79DFFFCE6FEF7DEFF7348006864
:101CB000401E72490860FEF793FFF2E660788028C4
:101CC00072DA207880286FD160790328FBD16748C9
:101CD0000068012850D166480068032810D1654883
:101CE000006808B9012000E0002062490968052960
:101CF00001D1012100E00021084308B1012000E0EA
:101D000000205B490968042910D15A490968012952
:101D100000D100E00021574A1268042A01D10122B3
:101D200000E00022114309B1012100E00021084335
:101D30004F490968052911D14E490968022901D185
:101D4000012100E000214B4A1268032A01D101223F
:101D500000E00022114309B1012100E00021084305
:101D60000028A0D101F0B8FD41480068401C40495E
:101D7000086001F089FDF5E33C480068022892D133
:101D80003D48006828B93D480068062801D1012077
:101D900000E0002038490968012906D1374909685F
:101DA000082902D1012101E09CE0002108433249C9
:101DB0000968022905D1314909680A2901D101219F
:101DC00000E0002108432C490968032905D12B496B
:101DD0000968092901D1012100E0002108432649B1
:101DE0000968042905D125490968072901D101217C
:101DF00000E00021084320490968052905D11F4951
:101E00000968052901D1012100E000210843B8B388
:101E1000FEF72AFF1848006828B918480068062805
:101E200001D1012000E0002013490968012905D1F2
:101E300012490968082901D1012100E00021084365
:101E400050B10E480068401C0C4908600A48006800
:101E5000401C0949086038E007480068032810D191
:101E60000648006809280CD101200BE03002002050
:101E7000400200203C0200204402002048020020D2
:101E800026E00020F9490968042905D1F8490968C4
:101E9000072901D1012100E000210843F349096825
:101EA000052905D1F2490968052901D1012100E080
:101EB0000021084348B1ED480068401EEB49086026
:101EC000EB480068401CEA490860FEF789FE49E3D8
:101ED000FEF7CAFEE6480068401CE5490860FEF7C8
:101EE0007FFE3FE36078802872D1207880286FDA07
:101EF000E048006801284FD1DF480068022810D16F
:101F0000DE48006808B9012000E00020DB490968CC
:101F1000052901D1012100E00021084308B1012079
:101F200000E00020D4490968012910D1D34909688B
:101F3000012900D100E00021D04A1268042A01D111
:101F4000012200E00022114309B1012100E000213B
:101F50000843C949096889B9C8490968022901D1F2
:101F6000012100E00021C54A1268032A01D10122A3
:101F700000E00022114309B1012100E000210843E3
:101F80000028A4D101F0A8FCBB480068401EBA4953
:101F9000086001F079FCE5E2B6480068022896D1B5
:101FA000B2480068D0B9B2480068042801D10120C5
:101FB00000E00020AE490968052901D1012100E0B7
:101FC00000210843AA490968062902D1012101E03C
:101FD000E3E00021084308B1012100E00021A3480B
:101FE0000068012821D1A2480068022801D10120FF
:101FF00000E000209E4A1268032A01D1012200E07D
:10200000002210439A4A1268072A01D1012200E0F7
:1020100000221043964A1268082A01D1012200E0EA
:102020000022104308B1012000E0002008438F493E
:10203000096802291FD18E49096809B9012100E008
:1020400000218B4A1268012A00D100E000221143CE
:10205000874A1268092A01D1012200E000221143B7
:10206000834A12680A2A01D1012200E000221143AA
:1020700009B1012100E00021084390B3FEF7F4FD0F
:102080007A480068012805D179480068022801D102
:10209000012000E0002075490968022904D1744933
:1020A000096809B9012100E00021084328B17048FE
:1020B0000068401C6E49086062E06C4800680128B6
:1020C00005D16B480068032801D1012000E0002001
:1020D00066490968022905D165490968012901D1C4
:1020E00001E050E00021084350B160480068401E04
:1020F0005E4908605E480068401C5D4908603FE03A
:102100005A480068012805D159480068082801D1BB
:10211000012000E0002055490968022905D15449F1
:1021200009680A2901D1012100E00021084328B1F2
:102130004F480068401E4E49086021E04B48006847
:10214000012805D14A480068072801D1012000E094
:10215000002046490968022905D14549096809292D
:1021600001D1012100E00021084348B14048006846
:10217000401E3F4908603D480068401E3B490860DA
:10218000FEF72EFDEEE1FEF76FFD38480068401EB9
:1021900036490860FEF724FDE4E16078802864D1C8
:1021A0002078802861DD33480068012850D132480A
:1021B0000068032810D13148006808B9012000E008
:1021C00000202E490968052901D1012100E00021E4
:1021D000084308B1012000E00020274909680429CC
:1021E00010D126490968012900D100E00021234AC5
:1021F0001268042A01D1012200E00022114309B132
:10220000012100E0002108431B490968052911D17B
:102210001A490968022901D1012100E00021174A69
:102220001268032A01D1012200E00022114309B102
:10223000012100E0002108430028A3D101F04CFB5C
:102240000D480068401C0C49086001F01DFB89E145
:1022500008480068022895D10448006802281BD16C
:102260000348006860B901200BE019E14402002036
:1022700048020020300200203C02002040020020E2
:102280000020B94909680A2901D1012100E0002193
:10229000084308B1012100E00021B4480068032888
:1022A00020D1B1480068012800D100E00020AE4AEA
:1022B0001268022A01D1012200E000221043AA4A3A
:1022C0001268082A01D1012200E000221043A64A28
:1022D0001268092A01D1012200E00022104308B14E
:1022E000012000E000200843A0490968042921D109
:1022F0009D490968032901D1012100E000219A4A82
:102300001268042A01D1012200E000221143964AFA
:102310001268062A01D1012200E000221143924AEC
:102320001268072A01D1012200E00022114309B1FD
:10233000012100E0002108438C490968052905D1E5
:1023400089490968052901D1012100E000210843DC
:1023500078B3FEF789FC85480068022804D18248DA
:10236000006808B9012000E00020804909680329BD
:1023700005D17D490968022901D1012100E0002130
:1023800008437A490968042905D17749096804296D
:1023900001D1012100E00021084358B172480068D2
:1023A000401C7149086071480068401C6F49086012
:1023B00069E06BE06D480068032804D16A48006852
:1023C000012800D100E0002068490968042905D1EE
:1023D00065490968032901D1012100E00021084372
:1023E00028B161480068401C5F4908604BE05F48C5
:1023F0000068022805D15C4800680A2801D1012044
:1024000000E0002059490968032905D156490968A7
:10241000082901D1012100E000210843534909683E
:10242000042905D150490968062901D1012100E09C
:102430000021084350B14C480068401E4A490860DA
:102440004A480068401C494908601CE04748006849
:10245000032805D144480068092801D1012000E083
:10246000002042490968042905D13F490968072924
:1024700001D1012100E00021084320B13A48006861
:10248000401E39490860FEF7ABFB6BE0FEF7ECFB42
:1024900036480068401C35490860FEF7A1FB61E042
:1024A000607880284EDA207880284BD16079012826
:1024B00048D101F011FAFEF7D7FB2D48006818B992
:1024C00001F0EEFC02F0B2F92A49086800EBD07185
:1024D0004910A0EB4101491C264A116002F03AFC68
:1024E0002348006808B9FFF755F82148006802281A
:1024F0000FD1012020490860486003208860C8602F
:10250000002001F00DFD012001F00AFD0020184916
:10251000086017480068012802D1022014490860A9
:1025200002201649086000201549086002200F4962
:10253000086000200C49086001F0A6F9012011494B
:1025400008600FE0607902280CD10E48006801286D
:1025500002D101F0ABFB05E00A480068022801D176
:1025600001F054FA10BD000048020020440200208F
:10257000D402002034020020B40200203C020020DB
:1025800040020020300200202DE9F04104460D46B3
:1025900016461F4628460DE0A11C06E0C0EB0012BF
:1025A00001EB0212104B9F54491CA219921E8A4241
:1025B000F4DA401CA9198142EEDAA81C0CE021468D
:1025C00006E0C0EB001201EB0212074B9F54491CBE
:1025D000A2198A42F5DA401CA919891E8142EEDA55
:1025E00001F050FCBDE8F081280800200FB58BB049
:1025F00002200A90119800287DD11298009010991D
:102600000C98084409900D990B9801440A98091AEE
:102610001098081A0890DDE90A100144109808443F
:102620000790DDE908130C9A00F042FF1298009021
:102630000E98089000EBD07041100C98014410984F
:10264000099000EBD070A1EB600007900C991098F6
:1026500008440690DDE90A100144109808440590EA
:10266000DDE90A100844049005A90EC900F020FF16
:10267000129800900E98089000EBD07041100C98C2
:1026800001441098099000EBD070A1EB6000079016
:102690000C991098084406900D990B9801440A98DB
:1026A000081A05900D990B9801440A98091A109878
:1026B000081A049005A90EC900F0FAFE12980090BD
:1026C0000E98089000EBD07041100C9801441098BF
:1026D000099000EBD07001EB600006900C990E9809
:1026E00001441098081A0790DDE90A100144109877
:1026F0000844059000E04DE0DDE90A10084404902C
:1027000005A90EC900F0D4FE129800900E9808900A
:1027100000EBD07041100C9801441098099000EB28
:10272000D07001EB600006900C990E98014410984F
:10273000081A07900D990B9801440A98081A0590F9
:102740000D990B9801440A98091A1098081A0490D8
:1027500005A90EC900F0ACFE129800900E990C98D5
:10276000084409900C9801441098081A08900D9993
:102770000B9801440A98091A1098081A0790DDE985
:102780000A10014410980844069007A90EC900F0E9
:102790008FFE1CE3119801284ED1129800900E98DC
:1027A000089000EBD07041100C98014410980990EB
:1027B00000EBD070A1EB600007900C9910980844D2
:1027C00006900D990B9801440A98081A05900D99E6
:1027D0000B9801440A98091A1098081A049005A940
:1027E0000EC900F065FE129800900E98089000EB5C
:1027F000D07041100C9801441098099000EBD070F3
:1028000001EB600006900C990E9801441098081A8C
:1028100007900D990B9801440A98081A05900D9994
:102820000B9801440A98091A1098081A049005A9EF
:102830000EC900F03DFEACE7119802287ED1129837
:10284000009010990C98084409900D990B98014438
:102850000A98091A1098081A0890DDE90A1001442C
:10286000109808440790DDE908130C9A00F020FE48
:10287000129800900E98089000EBD07041100C98C0
:1028800001441098099000EBD070A1EB6000079014
:102890000C991098084406900D990B9801440A98D9
:1028A000081A05900D990B9801440A98091A109876
:1028B000081A049005A90EC900F0FAFD12980090BC
:1028C0000E98089000EBD07041100C9801441098BD
:1028D000099000EBD07001EB600005900E98069017
:1028E00000EBD07041100C9801441098079000EB59
:1028F000D070A1EB600004900D990B9801440A98E8
:10290000091A1098081A0390DDE90A10014410987A
:102910000844029003A90EC900F0CAFD1298009065
:102920000E98089000EBD07041100C98014410985C
:10293000099000EBD07001EB600000E032E00690FF
:102940000C990E9801441098081A0790DDE90A10B6
:102950000144109808440590DDE90A1008440490E9
:1029600005A90EC900F0A4FD129800900E990C98CC
:10297000084409900C9801441098081A08900D9981
:102980000B9801440A98091A1098081A0790DDE973
:102990000A10014410980844069007A90EC900F0D7
:1029A00087FDF6E6119803287ED1129800901099C1
:1029B0000C98084409900D990B9801440A98091A3B
:1029C0001098081A0890DDE90A100144109808448C
:1029D0000790DDE908130C9A00F06AFD1298009048
:1029E0000E98089000EBD07041100C98014410989C
:1029F000099000EBD070A1EB600007900C99109843
:102A0000084406900D990B9801440A98081A0590FD
:102A10000D990B9801440A98091A1098081A049005
:102A200005A90EC900F044FD129800900E98089078
:102A300000EBD07041100C9801441098099000EB05
:102A4000D07001EB600005900E98069000EBD070FE
:102A500041100C9801441098079000EBD070A1EB46
:102A6000600004900D990B9801440A98091A109877
:102A7000081A0390DDE90A100144109808440290F6
:102A800003A90EC900F014FD129800900E9808904A
:102A900000EBD07041100C9801441098099000EBA5
:102AA000D07001EB600000E036E006900C990E98C3
:102AB00001441098081A07900D990B9801440A9840
:102AC000081A05900D990B9801440A98091A109854
:102AD000081A049005A90EC900F0EAFC12980090AB
:102AE0000E990C98084409900C9801441098081A03
:102AF00008900D990B9801440A98091A1098081A21
:102B00000790DDE90A10014410980844069007A9CF
:102B10000EC900F0CDFC3CE6119804287ED1129835
:102B200000900E98089000EBD07041100C98014472
:102B30001098099000EBD070A1EB600007900C9901
:102B4000109808440690DDE90A10014410980844E2
:102B50000590DDE90A100844049005A90EC900F0AB
:102B6000A7FC129800900E98089000EBD0704110CE
:102B70000C9801441098099000EBD070A1EB600014
:102B800007900C991098084406900D990B980144F1
:102B90000A98081A05900D990B9801440A98091A89
:102BA0001098081A049005A90EC900F081FC12982B
:102BB00000900E98089000EBD07041100C980144E2
:102BC0001098099000EBD07001EB600005900E9812
:102BD000069000EBD07041100C98014410980790BB
:102BE00000EBD070A1EB600004900D990B980144AC
:102BF0000A98091A1098081A0390DDE90A1001448E
:102C000010980844029003A90EC900F051FC1298D4
:102C100000900E98089000EBD07000E022E0411088
:102C20000C9801441098099000EBD07001EB600003
:102C300006900C990E9801441098081A07900D9967
:102C40000B9801440A98081A05900D990B980144B5
:102C50000A98091A1098081A049005A90EC900F0DC
:102C600027FCE9E3119805287ED11298009010996D
:102C70000C98084409900D990B9801440A98091A78
:102C80001098081A0890DDE90A10014410980844C9
:102C90000790DDE908130C9A00F00AFC12980090E6
:102CA0000E98089000EBD07041100C9801441098D9
:102CB000099000EBD070A1EB600007900C99109880
:102CC00008440690DDE90A10014410980844059074
:102CD000DDE90A100844049005A90EC900F0E8FBDC
:102CE000129800900E98089000EBD07041100C984C
:102CF00001441098099000EBD07001EB6000059042
:102D00000E98069000EBD07041100C98014410987A
:102D1000079000EBD070A1EB600004900D990B9828
:102D200001440A98091A1098081A0390DDE90A105C
:102D3000014410980844029003A90EC900F0B8FBA2
:102D4000129800900E98089000EBD07041100C98EB
:102D500001441098099000EBD07001EB60000690E0
:102D60000C990E98014400E032E01098081A079080
:102D70000D990B9801440A98081A05900D990B9823
:102D800001440A98091A1098081A049005A90EC956
:102D900000F08EFB129800900E990C980844099050
:102DA0000C9801441098081A08900D990B9801444A
:102DB0000A98091A1098081A0790DDE90A100144C8
:102DC00010980844069007A90EC900F071FB33E380
:102DD000119806287ED11298009010990C980844FA
:102DE00009900D990B9801440A98091A1098081A2D
:102DF0000890DDE90A100144109808440790DDE9C5
:102E000008130C9A00F054FB129800900E9808904A
:102E100000EBD07041100C9801441098099000EB21
:102E2000D070A1EB600007900C99109808440690B0
:102E3000DDE90A100144109808440590DDE90A1004
:102E40000844049005A90EC900F032FB12980090C6
:102E50000E98089000EBD07041100C980144109827
:102E6000099000EBD07001EB600005900E98069081
:102E700000EBD07041100C9801441098079000EBC3
:102E8000D070A1EB600004900D990B9801440A9852
:102E9000091A1098081A0390DDE90A1001441098E5
:102EA0000844029003A90EC900F002FB129800909A
:102EB0000E98089000EBD07041100C9801441098C7
:102EC000099000EBD07001EB600006900C990E9811
:102ED000014400E056E01098081A0790DDE90A1056
:102EE0000144109808440590DDE90A100844049054
:102EF00005A90EC900F0DCFA129800900E9808900F
:102F000000EBD07041100C9801441098099000EB30
:102F1000D07001EB600006900C990E980144109857
:102F2000081A07900D990B9801440A98081A059001
:102F30000D990B9801440A98091A1098081A0490E0
:102F400005A90EC900F0B4FA129800900E990C98D9
:102F5000084409900C9801441098081A08900D999B
:102F60000B9801440A98091A1098081A0790DDE98D
:102F70000A10014410980844069007A90EC900F0F1
:102F800097FA59E21198072867D112980090109982
:102F90000C98084409900D990B9801440A98091A55
:102FA0001098081A0890DDE90A10014410980844A6
:102FB0000790DDE908130C9A00F07AFA1298009055
:102FC0000E98089000EBD07041100C9801441098B6
:102FD000099000EBD070A1EB600007900C9910985D
:102FE000084406900B990D9801440A98081A059018
:102FF0000D990B9801440A98091A1098081A049020
:1030000005A90EC900F054FA129800900E98089085
:1030100000EBD07041100C9801441098099000EB1F
:10302000D07001EB600006900C990E980144109846
:10303000081A07900D990B9801440A98081A0590F0
:103040000D990B9801440A98091A1098081A0490CF
:1030500005A90EC900F02CFAEEE1119808287CD1E0
:103060001298009010990C98084409900D990B98AB
:1030700001440A98091A1098081A0890DDE90A1004
:103080000144109808440790DDE908130C9A00F0F9
:103090000FFA129800900E98089000EBD070411033
:1030A0000C9801441098099000EBD070A1EB6000DF
:1030B00007900C99109808440690DDE90A10014425
:1030C000109808440590DDE90A100844049005A909
:1030D0000EC900F0EDF9129800900E98089000EBE0
:1030E000D07041100C9801441098099000EBD070FA
:1030F000A1EB600007900C991098084406900D9978
:103100000B9801440A98081A05900D990B980144F0
:103110000A98091A1098081A049005A90EC900F017
:10312000C7F9129800900E98089000EBD0704110EB
:103130000C9801441098099000EBD07001EB6000EE
:1031400005900E98069000EBD07041100C98014449
:103150001098079000EBD07000E07EE0A1EB6000DB
:1031600004900D990B9801440A98091A1098081AAE
:103170000390DDE90A10014410980844029003A965
:103180000EC900F095F9129800900E98089000EB87
:10319000D07041100C9801441098099000EBD07049
:1031A00001EB600006900C990E9801441098081AE3
:1031B0000790DDE90A100144109808440590DDE904
:1031C0000A100844049005A90EC900F071F912987C
:1031D00000900E98089000EBD07041100C980144BC
:1031E0001098099000EBD07001EB600006900C99EC
:1031F0000E9801441098081A07900D990B980144F5
:103200000A98081A05900B990D9801440A98091A12
:103210001098081A049005A90EC900F049F91298EF
:1032200000900E990C98084409900C98014410984D
:10323000081A08900D990B9801440A98091A1098D9
:10324000081A0790DDE90A10014410980844069016
:1032500007A90EC900F02CF9EEE0119809287CD1DD
:103260001298009010990C98084409900D990B98A9
:1032700001440A98091A1098081A0890DDE90A1002
:103280000144109808440790DDE908130C9A00F0F7
:103290000FF9129800900E98089000EBD070411032
:1032A0000C9801441098099000EBD070A1EB6000DD
:1032B00007900C99109808440690DDE90A10014423
:1032C000109808440590DDE90A100844049005A907
:1032D0000EC900F0EDF8129800900E98089000EBDF
:1032E000D07041100C9801441098099000EBD070F8
:1032F000A1EB600007900C991098084406900D9976
:103300000B9801440A98081A05900D990B980144EE
:103310000A98091A1098081A049005A90EC900F015
:10332000C7F8129800900E98089000EBD0704110EA
:103330000C9801441098099000EBD07001EB6000EC
:1033400005900E98069000EBD07041100C98014447
:103350001098079000EBD07000E05AE0A1EB6000FD
:1033600004900D990B9801440A98091A1098081AAC
:103370000390DDE90A10014410980844029003A963
:103380000EC900F095F8129800900E98089000EB86
:10339000D07041100C9801441098099000EBD07047
:1033A00001EB600006900C990E9801441098081AE1
:1033B00007900D990B9801440A98081A05900D99E9
:1033C0000B9801440A98091A1098081A049005A944
:1033D0000EC900F06DF8129800900E990C980844F0
:1033E00009900C9801441098081A08900D990B98B0
:1033F00001440A98091A1098081A0790DDE90A1082
:10340000014410980844069007A90EC900F050F82E
:1034100012E011980A280FD1129800900E990C987A
:10342000084409900D990B98084408900146099B9F
:10343000DDE90B0200F002F80FB000BD2DE9F0410C
:1034400004460D4616461F46DDF8188030460CE04F
:10345000214607E0C0EB001201EB0212064B03F815
:103460000280491CA942F5DD401CB842F0DD00F0A5
:1034700009FDBDE8F0810000280800202DE9F04199
:1034800004460D4616469846C5EB051004EB00179A
:10349000384603E0054901F80080401CB919814213
:1034A000F8DC00F0EFFCBDE8F08100002808002007
:1034B0002DE9F05F05460F4616469846DDF8289040
:1034C000C6EB061005EB0014A8EB0600C0EB0010DD
:1034D00004EB001A781B00EB040B204603E01949AB
:1034E00001F80090401C791B21448142F7DC204602
:1034F00003E0144901F80090F030A8EB0601C1EB9D
:10350000011104EB01118142F3DC504603E00D4947
:1035100001F80090401C791B51448142F7DC584669
:1035200003E0084901F80090F030A8EB0601C1EB78
:1035300001110BEB01118142F3DC00F0A3FC00F060
:1035400003B800002808002030BCBDE8C09F000080
:1035500010B50446002002E004490C54401CB0F5AC
:10356000963FF9DB00F08EFC10BD0000280800201B
:103570002DE9F04104460D4616461F46C5EB0510E1
:1035800004EB0018404602E006490F54F030C6EB49
:10359000061108EB01118142F6DC00F073FCBDE876
:1035A000F081000028080020F8B514259626502741
:1035B0000024B448007806F10E0306F10A0215FB58
:1035C00004FC0CF1120C0CEB070115FB04FC0CF1D4
:1035D000020C00900CEB0700FFF76AFFA948007887
:1035E00006F11E0306F10A0215FB04FC0CF1060CA1
:1035F0000CEB070115FB04FC0CF1020C00900CEB2A
:103600000700FFF755FF9F48007806F1200306F1F9
:103610001C0215FB04FC0CF1120C0CEB070115FB52
:1036200004FC0CF1020C00900CEB0700FFF740FFCC
:103630009448007806F1320306F11E0215FB04FCE3
:103640000CF1120C0CEB070115FB04FC0CF10E0C39
:1036500000900CEB0700FFF72BFF8A48007806F17B
:10366000320306F12E0215FB04FC0CF1120C0CEBDC
:10367000070115FB04FC0CF1020C00900CEB070099
:10368000FFF716FF641C7F48007806F1320306F14D
:103690000A0215FB04FC0CF1060C0CEB070115FBF0
:1036A00004FC0CF1020C00900CEB0700FFF700FF8C
:1036B0007448007806F10E0306F10A0215FB04FCBB
:1036C0000CF1120C0CEB070115FB04FC0CF1020CC5
:1036D00000900CEB0700FFF7EBFE6A48007806F15C
:1036E000200306F11C0215FB04FC0CF1120C0CEB80
:1036F000070115FB04FC0CF1020C00900CEB070019
:10370000FFF7D6FE5F48007806F1320306F12E027D
:1037100015FB04FC0CF1120C0CEB070115FB04FC6F
:103720000CF1020C00900CEB0700FFF7C1FE641CCB
:103730005448007806F1320306F10A0215FB04FC36
:103740000CF1060C0CEB070115FB04FC0CF1020C50
:1037500000900CEB0700FFF7ABFE4A48007806F13B
:103760000E0306F10A0215FB04FC0CF1120C0CEB23
:10377000070115FB04FC0CF1020C00900CEB070098
:10378000FFF796FE3F48007806F1200306F11C0281
:1037900015FB04FC0CF1120C0CEB070115FB04FCEF
:1037A0000CF1020C00900CEB0700FFF781FE35488E
:1037B000007806F1320306F12E0215FB04FC0CF131
:1037C000120C0CEB070115FB04FC0CF1020C009031
:1037D0000CEB0700FFF76CFE641C2A48007806F12A
:1037E000320306F10A0205FB04FC0CF1060C0CEB9B
:1037F000070105FB04FC0CF1020C00900CEB070028
:10380000FFF756FE1F48007806F10E0306F10A0284
:1038100005FB04FC0CF1120C0CEB070105FB04FC8E
:103820000CF1020C00900CEB0700FFF741FE15486D
:10383000007806F12E0306F10E0205FB04FC0CF1E4
:10384000120C0CEB070105FB04FC0CF10E0C0090B4
:103850000CEB0700FFF72CFE0A48007806F1320354
:1038600006F12E0205FB04FC0CF1120C0CEB070117
:1038700005FB04FC0CF1020C00900CEB0700FFF7B9
:1038800017FEF8BD1800002010B50F4A126802EBB1
:1038900042020E4B03EB02120D4B1B6802EBC302FC
:1038A0005268911C084A126802EB4202074B03EB74
:1038B0000212074B1B6852F83320901C054A1378FC
:1038C0000622FEF761FE10BD3C020020E802002047
:1038D000400200201D00002010B54548006800EBA4
:1038E0004000444901EBC0004349096850F82100F9
:1038F000012829D03E48006800EB40003D4901EB1B
:10390000C0003D49096850F8210002281CD0384AFF
:10391000126802EB4202394B03EB0212364B1B6872
:1039200002EBC3025168324A126802EB4202334B87
:1039300003EB0212304B1B6852F83300304A137805
:103940000A22FEF721FE52E02948006800EB400001
:10395000284901EBC0002849096850F821000128D6
:103960001CD1234A126802EB4202244B03EB0212E1
:10397000214B1B6802EBC30251681D4A126802EB1F
:1039800042021E4B03EB02121B4B1B6852F8330022
:103990001C4A13780A22FEF7F7FD28E01448006855
:1039A00000EB4000134901EBC0001349096850F8CF
:1039B000210002281BD10E4A126802EB42020F4B73
:1039C00003EB02120C4B1B6802EBC3025168084A5E
:1039D000126802EB4202094B03EB0212064B1B6812
:1039E00052F83300084A13780A22FEF7CDFD10BDC5
:1039F0003C0200205C34012040020020E80200204C
:103A000017000020200000202100002038B59D482C
:103A1000006800EB40009C4901EBC0009B4909682D
:103A200050F8210000287CD199480068012879D1FC
:103A300098480068012876DB964840680128FADB40
:103A400001209049096801EB41018F4A02EBC10155
:103A50008E4A126841F822008E480068401E8D4947
:103A6000086008464068401E48608B480078854CD6
:103A70000090246804EB4404884D05EB4414834D06
:103A80002D6804EB0514E3687E4C246804EB4404C1
:103A9000824D05EB44147D4D2D6804EB0514A2689E
:103AA000784C246804EB44047C4D05EB4414774DBA
:103AB0002D6804EB05146168724C246804EB44041F
:103AC000764D05EB4414714D2D6804EB0514206808
:103AD000FFF7B4FC724800786A4C0090246804EB4D
:103AE00044046E4D05EB4414684D2D6804EB051439
:103AF000E468631E634C246804EB4404674D05EBE3
:103B00004414624D2D6804EB0514A468621C5D4CDE
:103B1000246804EB4404614D05EB44145B4D2D68AF
:103B200002E0AEE017E099E004EB05146468611E62
:103B3000544C246804EB4404584D05EB4414534D95
:103B40002D6804EB05142468601CFFF777FC012046
:103B500000F0E6F993E04E48006802287ED1514813
:103B6000006801287ADB4F484068012876DB022094
:103B70004449096801EB4101434A02EBC101434A50
:103B8000126841F8220047480068401E4549086015
:103B900008464068401E486043480078394C009011
:103BA000246804EB44043D4D05EB4414374D2D6867
:103BB00004EB0514E368334C246804EB4404374DEC
:103BC00005EB4414314D2D6804EB0514A2682D4C0F
:103BD000246804EB4404314D05EB44142B4D2D684F
:103BE00004EB05146168274C246804EB44042B4D56
:103BF00005EB4414254D2D6804EB05142068FFF7F0
:103C00001DFC274800781F4C0090246804EB4404F6
:103C1000224D05EB44141D4D2D6804EB0514E4689A
:103C2000631E184C246804EB44041C4D05EB44143B
:103C3000164D2D6804EB0514A468621C114C246811
:103C400004EB4404154D05EB4414104D2D6804EBB2
:103C500005146468611E0B4C246800E00FE004EB5F
:103C600044040E4D05EB4414084D2D6804EB051477
:103C70002468601CFFF7E2FB012000F051F9FCF71B
:103C8000ADFB38BD48020020EC3401204402002086
:103C900034020020B402002020000020080400208C
:103CA0001D000020C40200202100002010B56A4839
:103CB000006800EB4000694901EBC00068490968F1
:103CC00050F82100002862D16648006801285FD1C1
:103CD0006548806803285ADB6348C0680328FADB1C
:103CE00001215D48006800EB40005C4A02EBC00027
:103CF0005B4A126840F822105B488068C01E5A492F
:103D000088600846C068C01EC860534A126802EB4B
:103D10004202564B03EB0212514B1B6802EBC302EB
:103D200051684D4A126802EB4202504B03EB0212FB
:103D30004B4B1B6852F833004D4A13780A22FEF7AA
:103D400023FC454A126802EB4202484B03EB021285
:103D5000434B1B6802EBC3025268911C3E4A126837
:103D600002EB4202414B03EB02123D4B1B6852F83F
:103D70003320901C3F4A13780622FEF705FC3E488C
:103D80000068401C3C490860022000F0C9F862E06D
:103D90003448006802285ED13848806803285ADB1E
:103DA0003648C068032856DB02202B49096801EB1E
:103DB00041012A4A02EBC101294A126841F8220056
:103DC0002E488068C01E2D4988600846C068C01E05
:103DD000C860214A126802EB4202244B03EB021234
:103DE0001F4B1B6802EBC30251681B4A126802EBAF
:103DF00042021E4B03EB0212194B1B6852F83300B0
:103E00001F4A13780A22FEF7BFFB134A126802EB1F
:103E10004202164B03EB0212114B1B6802EBC3026A
:103E20005268911C0C4A126802EB42020F4B03EBE2
:103E300002120B4B1B6852F83320901C0D4A13786A
:103E40000622FEF7A1FB0C484068401C0A49486066
:103E5000022000F065F810BD3C0200205C34012017
:103E60004002002034020020B4020020E8020020BA
:103E7000200000201D000020D8020020C4020020E5
:103E80002100002010B5002404E00449085D01F081
:103E900073F8641CB4F5963FF7DB10BD28080020CA
:103EA0000CB500200090019000BF1EE0002119E039
:103EB00000EB4002184B03EBC20252F82120012A0A
:103EC00003D1009A521C00920BE000EB4002124B0F
:103ED00003EBC20252F82120022A02D1019A521C9D
:103EE0000192491C0529E3DB401C0A28DEDBDDE9E1
:103EF0000010884203DD0220084948600BE0DDE93C
:103F00000001884203DD02200449086003E000202C
:103F10000249086048600CBDEC340120E00200203A
:103F200001B58CB002200B9046200A900F2009901A
:103F3000142008900E200790FE48006801287DD1CB
:103F40000C9801287BD1FC4801780A220B98CDE916
:103F50000121009008984000401D069007984000FD
:103F6000059009980A3004904FF48771DDE9052324
:103F7000FEF73CFBF14800680A2190FBF1F001904C
:103F800001F045FCCDE902019DED020B00F020FFA0
:103F90008DED040B9DED040B51EC100B01F008FCB2
:103FA0000690E748027806990B988DE80700099873
:103FB0000A3005904FF48771DDE90723FEF716FB01
:103FC000DE4800680A2190FBF1F201FB1200069026
:103FD000DB48027806990B988DE8070009980A30AB
:103FE0000799084405900A464FF48771089BFEF72D
:103FF000FDFAD24840680A2190FBF1F0019001F0EF
:1040000006FCCDE902019DED020B00F0E1FE8DED15
:10401000040B9DED040B51EC100B01F0C9FB069055
:10402000C748027806990B988DE8070009980A306E
:10403000059040F22711DDE9072301E0B2E01BE023
:10404000FEF7D4FABD4840680A2190FBF1F201FB6B
:1040500012000690BA48027806990B988DE807007E
:1040600009980A300799084405900A4640F227113A
:10407000089BFEF7BBFAD7E1AF4801780A220B98FC
:10408000CDE90121009008984000401D0690079856
:10409000400005900A980A3004904FF48771DDE9DA
:1040A0000523FEF7A3FAA54880680A2190FBF1F0EA
:1040B000019001F0ACFBCDE902019DED020B00F097
:1040C00087FE8DED040B9DED040B51EC100B01F000
:1040D0006FFB06909A48027806990B988DE80700C6
:1040E0000A980A3005904FF48771DDE90723FEF73F
:1040F0007DFA924880680A2190FBF1F201FB1200E0
:1041000006908F48027806990B988DE807000A9868
:104110000A300799084405900A464FF48771089BB6
:10412000FEF764FA8548C0680A2190FBF1F001901F
:1041300001F06DFBCDE902019DED020B00F048FEA0
:104140008DED040B9DED040B51EC100B01F030FBD9
:1041500006907B48027806990B988DE807000A982C
:104160000A30059040F22711DDE90723FEF73EFAF9
:104170007248C0680A2190FBF1F201FB1200069020
:104180006F48027806990B988DE807000A980A3064
:104190000799084405900A4640F22711089BFEF74C
:1041A00025FA41E1634800680228FAD10C980128F9
:1041B0007ED1614801780A220B98CDE90121009057
:1041C00008984000401D0690079840000590099807
:1041D0008C3004904FF48771DDE90523FEF706FA71
:1041E000584800680A2190FBF1F0019001F00FFBA4
:1041F000CDE902019DED020B00F0EAFD8DED040B0F
:104200009DED040B51EC100B01F0D2FA06904E48D4
:10421000027806990B988DE8070009988C30059074
:104220004FF48771DDE90723FEF7E0F945480068A0
:104230000A2190FBF1F201FB12000690424802783D
:1042400006990B988DE8070009988C300799084467
:1042500005900A464FF48771089BFEF7C7F9394865
:1042600040680A2190FBF1F0019001F0D0FACDE90D
:1042700002019DED020B00F0ABFD8DED040B9DEDF9
:10428000040B51EC100B01F093FA06902E480278C3
:1042900006990B988DE8070009988C30059040F23C
:1042A0002711DDE90723FEF7A1F92648406800E061
:1042B00017E00A2190FBF1F201FB12000690224860
:1042C000027806990B988DE8070009988C300799B9
:1042D000084405900A4640F22711089BFEF786F92C
:1042E000A2E0154801780A220B98CDE9012100903F
:1042F00008984000401D06900798400005900A98D5
:104300008C3004904FF48771DDE90523FEF76EF9D8
:104310000C4880680A2190FBF1F0019001F077FAD7
:10432000CDE902019DED020B00F052FD8DED040B75
:104330000CE000003402002017000020B40200202E
:1043400020000020C4020020210000209DED040B6D
:1043500051EC100B01F02CFA0690344802780699C3
:104360000B988DE807000A988C3005904FF4877100
:10437000DDE90723FEF73AF92D4880680A2190FB12
:10438000F1F201FB120006902848027806990B987A
:104390008DE807000A988C300799084405900A4672
:1043A0004FF48771089BFEF721F92148C0680A2164
:1043B00090FBF1F0019001F02AFACDE902019DEDA8
:1043C000020B00F005FD8DED040B9DED040B51EC8F
:1043D000100B01F0EDF906901448027806990B983D
:1043E0008DE807000A988C30059040F22711DDE92E
:1043F0000723FEF7FBF80E48C0680A2190FBF1F294
:1044000001FB120006900948027806990B988DE886
:1044100007000A988C300799084405900A4640F234
:104420002711089BFEF7E2F80DB000BD2100002027
:10443000C40200202DE9F84346240F2514260E2738
:104440004FF0020848480378F02240F203110020A0
:10445000FFF714F844480378F02240F207110020D7
:10446000FFF70CF840480378462240F2031175200C
:10447000FFF77EF83C480378462240F2031179208A
:10448000FFF776F838480378462240F203113720C8
:10449000FFF76EF834480378462240F20311B92042
:1044A000FFF766F8314800780090E81F40F21D13CE
:1044B00040F21312A91CFEF7C1FF2D4800780090AE
:1044C000E81F4FF49B734FF49672A91CFEF7B6FFDA
:1044D000284800780090E01F40F21D1340F21312AC
:1044E000A11CFEF7ABFF244800780090E01F4FF4BA
:1044F0009B734FF49672A11CFEF7A0FF1B48007837
:1045000040F21D1340F2131205F18501009005F1F0
:104510007B00FEF793FF164800784FF49B734FF42F
:10452000967205F18501009005F17B00FEF786FF8C
:104530001048007840F21D1340F2131204F1850177
:10454000009004F17B00FEF779FF0B4800784FF4F0
:104550009B734FF4967204F18501009004F17B0087
:10456000FEF76CFFBDE8F88318000020190000205A
:104570001B0000201F0000201E0000201A480068B9
:1045800020F04000184908601848006E40F4805040
:10459000164908660846006C40F4805008640846D6
:1045A000006C20F4805008640F48006820F002007E
:1045B0000D4908600846006820F0010008600846C0
:1045C000006840F0040008600846006840F400708D
:1045D00008600846006840F480700860084600687B
:1045E00040F0400008607047003001400010024079
:1045F0000EB58B4800780E230A221221009002206B
:10460000FEF756FF864800781E230A2206210090F6
:104610000220FEF74DFF8248007820231C22122141
:1046200000900220FEF744FF7D48007832231E22CE
:10463000122100900E20FEF73BFF794800783223CC
:104640002E22122100900220FEF732FF74480078DB
:104650000E230A22262100901620FEF729FF70481B
:10466000007832230A221A2100901620FEF720FF3C
:104670006B48007832232E22262100901620FEF768
:1046800017FF6748007832230A222E2100902A2043
:10469000FEF70EFF6248007832230A223A2100908A
:1046A0003620FEF705FF5E4800780E230A223A21E5
:1046B00000902A20FEF7FCFE5948007832232E2273
:1046C0003A2100902A20FEF7F3FE55480078322365
:1046D0000A22422100903E20FEF7EAFE5048007870
:1046E0000E230A224A2100903E20FEF7E1FE4C48AC
:1046F000007820231C224A2100903E20FEF7D8FE9D
:10470000474800781B230F224E2100904A20FEF7D5
:10471000CFFE43480078322321224E2100904A20C8
:10472000FEF7C6FE3E48007832230A22562100904A
:104730005220FEF7BDFE3A4800780E230A2262217D
:1047400000905220FEF7B4FE3548007820231C224A
:10475000622100905220FEF7ABFE314800783223F0
:104760002E22622100905220FEF7A2FE2C480078F3
:1047700015230F22712100906B20FEF799FE284827
:1047800000782D232722712100906B20FEF790FEE8
:1047900024480078002104222823CDE9002102903A
:1047A00014220A218C20FDF721FF1E4800780021E9
:1047B00004222823CDE90021029014220A21A020FE
:1047C000FDF714FF1648007815230F22C121009031
:1047D000BB20FEF76DFE124800782D232722C12151
:1047E0000090BB20FEF764FE0F48007800210422F1
:1047F0002823CDE90021029014220A21C820FDF7C8
:10480000F5FE09480078002104222823CDE9002183
:10481000029014220A21DC20FDF7E8FE0EBD000004
:1048200018000020200000202100002030B52DEDD0
:10483000048B83B001209B4908609B4800780A21C3
:1048400004222823CDE90021029014228C20FDF7B8
:10485000CDFE954800780A2104222823CDE90021C5
:1048600002901422A020FDF7C1FE8F4800780A2193
:1048700004222823CDE9002102901422C820FDF74C
:10488000B5FE894800780A2104222823CDE90021B9
:1048900002901422DC20FDF7A9FE844800688449B8
:1048A000096808440A2190FBF1F5284600F0AFFFA3
:1048B00041EC190BB0EE490AF0EE690A00F088FAF3
:1048C000B0EE408AF0EE608A51EC180B00F070FFF9
:1048D000044678480078042128231422CDE90014E6
:1048E00002900A218C20FDF781FE70480068704913
:1048F000096808440A2190FBF1F201FB12046D489B
:104900000078042128231422CDE9001402900A2102
:10491000A020FDF76BFE654840686549496808447A
:104920000A2190FBF1F5284600F071FF41EC190BCC
:10493000B0EE490AF0EE690A00F04AFAB0EE408A99
:10494000F0EE608A51EC180B00F032FF04465A4832
:104950000078042128231422CDE9001402900A21B2
:10496000C820FDF743FE5148406851494968084452
:104970000A2190FBF1F201FB12044F480078042158
:1049800028231422CDE9001402900A21DC20FDF72F
:104990002DFE464800684649096808440F2801DB97
:1049A000012000E0002041494968414A5268114411
:1049B0000F2901DB012100E000210843002869D014
:1049C00061E0394800780A2104222823CDE900213A
:1049D000029014228C20FDF709FE334800780A214A
:1049E00004222823CDE9002102901422A020FDF703
:1049F000FDFD002000E0401C30498842FBDB2B48D5
:104A000000682B49096808440A2190FBF1F5284603
:104A100000F0FDFE41EC190BB0EE490AF0EE690A18
:104A200000F0D6F9B0EE408AF0EE608A51EC180B37
:104A300000F0BEFE04461F480078042128231422FB
:104A4000CDE9001402900A218C20FDF7CFFD174814
:104A500000681749096808440A2190FBF1F201FB3C
:104A6000120414480078042128231422CDE90014EC
:104A700002900A21A020FDF7B9FD002000E0401CB3
:104A80000F498842FBDB0948006809490968084466
:104A90000F2896DA00200349086003B0BDEC048BB0
:104AA00030BD00003802002017000020D80200208E
:104AB000E00200202000002021000020400D030023
:104AC00080841E0010B516480068401C1449086018
:104AD00014480068401C1349086008460068C8284C
:104AE0001DD911480068012819D010480068B0B9D4
:104AF00000200F49087001230A460E4801780E482D
:104B0000FCF712FF06230D4A0D4801780A48FCF70E
:104B1000DDFE0A48FCF7A8FF00200249086010BD2E
:104B20002402002028020020040000203802002077
:104B3000160000200D000020005400400E00002050
:104B40000C00002010B500204FF0E021086142F277
:104B50000F70486100208861401E00280DDB00BFF7
:104B600000BF00F01F02012191404209920002F1B2
:104B7000E022C2F8001100BF00BF00BF4FF0FF30BD
:104B80000121002804DB0A07130E0F4A135406E024
:104B90000A07140E0D4A00F00F031B1FD45400BF68
:104BA0004FF0E020006940F002004FF0E021086182
:104BB0000846006920F0040008610846006940F0DA
:104BC0000100086110BD000000E400E018ED00E005
:104BD0005E49096821F007015C4A116011460968C5
:104BE00041F0020111605A49096841F48071584A44
:104BF000116000BF5649096801F480610029F9D0AD
:104C000010205349496821F0F851514A516011462A
:104C1000496841EA006151601146096821F08071DC
:104C2000116000BF4A49096801F00071B1F1007FCD
:104C3000F8D04749C96821F00301454AD1601146BF
:104C4000C96841F00201D1601146C96821F4FE41F2
:104C500041F4A051D1601146C96821F0700141F0C2
:104C60001001D1601146C96821F0C061D1601146C0
:104C7000C96841F08071D1601146096841F08071C6
:104C8000116000BF3249096801F000710029F9D0B4
:104C90002F49896821F003012D4A916011468968E6
:104CA00041F00301916000BF2949896801F00C01BE
:104CB0000C29F9D12649896821F0F001244A916034
:104CC0001146896821F4E06191601146896821F4F8
:104CD000605191601146096821F08061116000BF48
:104CE0001B49096801F08061B1F1806FF8D0184963
:104CF000096921F4FE41164A11611146096941F41E
:104D0000C05111611146096941F400311161114628
:104D1000096941F4803111611146096841F08061EF
:104D2000116000BF0A49096801F080610029F9D0CB
:104D300007498831096821F44001054AC2F8881002
:104D40001146096E41F400111166704700200240BF
:104D500000100240F8B546245A2519480068012879
:104D600014D1184800782B462246DC210090C82038
:104D7000FEF764FB14262827134800782B462246AA
:104D8000394600903046FEF759FB18E00C480068A1
:104D9000022814D10B4800782B4622462821009087
:104DA0001420FEF74BFBC826DC27084800782B466A
:104DB0002246394600903046FEF740FB00BFF8BD62
:104DC00034020020170000202000002021000020D5
:104DD0002DE9F0412DED020B9FED3D0B2DED028BEA
:104DE0009FED3D8BDDE90254C4F30A50A0F2FF367B
:104DF000142E37DA002E18DA53EC102B9DED020B2F
:104E000051EC100B00F020FC53EC182B00F0A6FD29
:104E100057D2002CA4BF0024254652DA24F00040CB
:104E2000284318BF2E4C4CD01AE02E4820FA06F723
:104E300004EA070028431FD053EC102B9DED020B12
:104E400051EC100B00F000FC53EC182B00F086FD29
:104E500037D2002C03DA4FF48010F0400444BC43F6
:104E600000252EE0332E07DCA6F114004FF0FF31B1
:104E700021FA00F73D4206D19DED020BBDEC028BFD
:104E800002B0BDE8F08153EC102B9DED020B51EC0C
:104E9000100B00F099FD53EC182B00F05FFD10D2C1
:104EA000002C0DDA142E08BF641C09D0C6F13400A2
:104EB000012101FA00F02844A84238BF641C0546CD
:104EC000BD43CDE902549DED020BD7E70000000081
:104ED0009C7500883CE4377E000000000000000064
:104EE0000000F0BFFFFF0F00054A116800BF044A31
:104EF0001268521A8242FAD30022014B1A6070479C
:104F00002402002000B5024600BF0E48806800F071
:104F100080000028F9D10C48006820F010000A49F0
:104F20000860104600F01CF800BF0648806800F0DA
:104F300080000028F9D10448006840F010000249C0
:104F4000086000BD003001401404004800B502466E
:104F5000101200F005F8D0B200F002F800BD000019
:104F600000BF0449896801F002010029F9D0014914
:104F7000087370470030014000B50246044830F81D
:104F800012301812FFF7ECFFD8B2FFF7E9FF00BDAF
:104F90002200002010B5FCF736FDFCF73DFD012096
:104FA000FFF7B0FF002000E0401C80498842FBDB97
:104FB000CB20FFF7A7FF3920FFF7D2FF2C20FFF708
:104FC000CFFF0020FFF7CCFF3420FFF7C9FF0220FE
:104FD000FFF7C6FFCF20FFF795FF0020FFF7C0FFC8
:104FE000C120FFF7BDFF3020FFF7BAFFE820FFF731
:104FF00089FF8520FFF7B4FF0020FFF7B1FF78207D
:10500000FFF7AEFFEA20FFF77DFF0020FFF7A8FFC4
:105010000020FFF7A5FFED20FFF774FF6420FFF7E6
:105020009FFF0320FFF79CFF1220FFF799FF8120CD
:10503000FFF796FFF720FFF765FF2020FFF790FFAF
:10504000C020FFF75FFF2320FFF78AFFC120FFF793
:1050500059FF1020FFF784FFC520FFF753FF3E20C4
:10506000FFF77EFF2820FFF77BFFC720FFF74AFFEF
:105070008620FFF775FF3620FFF744FF4820FFF733
:105080006FFF3A20FFF73EFF5520FFF769FFB12081
:10509000FFF738FF0020FFF763FF1820FFF760FFDE
:1050A000B620FFF72FFF0820FFF75AFF8220FFF7F7
:1050B00057FF2720FFF754FFF220FFF723FF0020C0
:1050C000FFF74EFF2620FFF71DFF0120FFF748FFE7
:1050D000E020FFF717FF0F20FFF742FF3120FFF717
:1050E0003FFF2B20FFF73CFF0C20FFF739FF0E207E
:1050F000FFF736FF0820FFF733FF4E20FFF730FFA2
:10510000F120FFF72DFF3720FFF72AFF0720FFF7D9
:1051100027FF1020FFF724FF0320FFF721FF0E20B9
:10512000FFF71EFF0920FFF71BFF0020FFF718FF06
:10513000E120FFF7E7FE0020FFF712FF0E20FFF748
:105140000FFF1420FFF70CFF0320FFF709FF1120CA
:10515000FFF706FF0720FFF703FF3120FFF700FFEF
:10516000C120FFF7FDFE4820FFF7FAFE0820FFF7F9
:10517000F7FE0F20FFF7F4FE0C20FFF7F1FE3120C1
:10518000FFF7EEFE3620FFF7EBFE0F20FFF7E8FEFD
:105190001120FFF7B7FE002000E0401C03498842C1
:1051A000FBDB2920FFF7AEFE10BD0000400D030021
:1051B00010B500200DE0002108E0002200EB4003C4
:1051C0003C4C04EBC30343F82120491C0629F4DBC3
:1051D000401C0628EFDB00200DE0002108E0002243
:1051E00000EB4003344C04EBC30343F82120491C7B
:1051F0000629F4DB401C0B28EFDB002015E0002122
:1052000010E00022C0EBC0032C4C04EB031303EBB3
:1052100001131A60C0EBC00304EB031303EB01138B
:10522000DA60491C0729ECDB401C0728E7DB24482F
:1052300001682248C0F86811214841681F48C0F839
:1052400008111F4881681D48C0F878111C48C168C2
:105250001A48C0F8E8111A4801691848C0F8A8109F
:10526000174841691548C0F8181115488169134855
:10527000C0F888111248C1691048C0F8F8111048E8
:10528000016A0E48C0F868120D48416A0B48C0F820
:1052900028110B48816A0948C0F898110848C16A6A
:1052A0000648C0F808120648016B0448C0F8A81167
:1052B00010BD00005C340120EC340120F4350120E5
:1052C0004C020020FFF784FCFCF7C6F8FFF756F904
:1052D000FFF738FCBC48006801280AD0FCF702FA46
:1052E000FCF766FA0223B94AB9480178B948FCF7D5
:1052F0001BFBFFF74FFE2A20FFF704FE0020FFF7FD
:1053000025FEEF20FFF722FE2B20FFF7FBFD0020FC
:10531000FFF71CFE40F23F10FFF718FE2C20FFF7AE
:10532000F1FDAD480078FEF713F9FEF73DF91BE0FB
:105330000020AA49087001230A46A5480178A5481B
:10534000FCF7F2FA0623A64AA6480178A148FCF722
:10535000BDFAA3484079022806D1A1480078A049A7
:105360004978401AA04908609F4800680128DFD0AA
:1053700099480078FEF7ECF80D219C4800F03EF9C2
:10538000FBF79EFDFBF7D6FFFEF77EFAFFF730F93D
:10539000FFF750F80120FEF7C3FD0220FEF7C0FD25
:1053A0000220934908600120FEF7BAFD0220FEF7B3
:1053B000B7FD01208E490860FFF7FAFEFFF7CAFC2F
:1053C00000208C4908608C48006801287ED180202C
:1053D00083490870792048700846FCF745FB802017
:1053E0007F4908704870002048714FF49670FFF7AD
:1053F0007BFD80207A490870792048700846FCF7C8
:1054000033FB8020764908704870002048714FF4C3
:105410009670FFF769FD81207149087080204870FF
:105420000846FCF721FB80206D4908704870002079
:1054300048714FF49670FFF757FD80206849087057
:105440004870022048710846FCF70EFB8020644932
:1054500008704870002048714FF49670FFF744FDC3
:1054600079205F4908708020487000204871084604
:10547000FCF7FAFA80205A490870487000204871F9
:105480004FF49670FFF730FD802055490870487042
:10549000012048710846FCF7E7FA8020504908705F
:1054A0004870002048714FF49670FFF71DFD802072
:1054B0004B49087079204870002048710846FCF775
:1054C000D3FA802046490870487000E07AE0002056
:1054D00048714FF49670FFF707FD8020404908702F
:1054E00079204870002048710846FCF7BDFA8020FA
:1054F0003B4908704870002048714FF49670FFF7E0
:10550000F3FC8020364908707920487000204871EB
:105510000846FCF7A9FA802031490870487000203D
:1055200048714FF49670FFF7DFFC81202C4908701A
:1055300080204870002048710846FCF795FA8020CA
:10554000274908704870002048714FF49670FFF7A3
:10555000CBFC802022490870487002204871084620
:10556000FCF782FA80201E490870487000204871BC
:105570004FF49670FFF7B8FC802019490870487006
:10558000072048710846FCF76FFA8020144908701C
:105590004870002048714FF49670FFF7A5FC8020FA
:1055A0000F4908704870072048710846FCF75CFAFC
:1055B00080200B4908704870002048714FF49670A5
:1055C000FFF792FC00BFFEE704000020140000205B
:1055D0000D0000200054004017000020160000209D
:1055E0000E0000200C000020000000204C020020D3
:1055F0003402002038020020080000202DE9F0418C
:1056000005460E460F480068FAF78CFE002413E0AA
:10561000FAF72CFE311B6FF0004292FBF1F1491CAE
:1056200090FBF1F0071955F8278055F8240045F84C
:10563000270045F82480641C701EA042E8DCBDE809
:10564000F08100000000002010B591EA030F48BF70
:1056500083F0004300F1CC81841A71EB030C05D276
:10566000121943EB0C03001B61EB0C01DFF824E182
:105670004FEA1154A4EB135C1EEA430F18BF9EEAD5
:10568000445F73D023EA0E03DCF1200E21EA0451BB
:1056900043F4801332D322FA0CFE10EB0E0023FAEF
:1056A0000CFE41EB0E01CCF1200E03FA0EFE10EBC6
:1056B0000E0051F10001B1F5801FCCF1200E32D265
:1056C00001EB045112FA0EF2BDE8104058BF7047CA
:1056D000401C38BF5FEA420218BF7047002814BF61
:1056E00020F0010041F100014FEA410313F5001FD2
:1056F00038BF7047A1F1C04100F02AB9012A43EB3D
:105700000302ACF1200CDCF11F0E32BF4FF0000E93
:1057100023FA0CF310EB030041EB0451B4EB115FDF
:10572000D0D0A1EB045101F5801149085FEA3000A7
:1057300001EB04510ED350F1000038BF12FA0EFEF7
:1057400008D1BDE81040C9E7401C38BF5FEA4202FB
:10575000CAD1C3E7BDE810404FEA410313F5001F6B
:1057600038BF7047A1F1C04100F0F2B89EEA445F33
:1057700008D011EA5E0FBDE8104004BF01F00041FF
:1057800000207047BDE8104070B500F093F800BFEE
:1057900064FBBE3E0000E0FF491058BFC1F140412C
:1057A0005B1058BFC3F140438B42EFF3008070475A
:1057B0004FEA41034FEA5353A3F58063D3F11E032D
:1057C000C8BFD3F1210C0CDD4FF0004242EAC122E8
:1057D00042EA505232FA03FC8CEAE17CACEBE17015
:1057E0007047102BC4BF0020704703F5787CBCF1D4
:1057F000FF3F04D06FF0004282EA2100704770B58D
:1058000000F058F84992248000207047F2E710F029
:10581000004248BF4042B0FA80F310FA03F10AD0C8
:10582000C3F11D0303F580634FEA415002EB0352BD
:1058300002EBD12170474FF00000704751EA030C92
:1058400017D41CF5801F58BFBCF5801F00F10680DF
:10585000994218BF704708BF9042704707D711F5AB
:10586000801F58BF13F5801F19D499427047894291
:1058700070471CF5801F08D5BCF5801FF7D58B42FB
:1058800018BF704708BF824270474FF4001C1CEBE2
:10589000410F38BF1CEB430F01D28B42704770B5EC
:1058A00000F008F8922449004FF000514FF0805367
:1058B000FFF772BF0EF1020E2EF0030E5EF8046BBE
:1058C000364205D4012A43EB030515F5001F12D813
:1058D000012841EB010C1CF5001F0CD80ED14FEA3A
:1058E000D17C15F5001F0CEB4C0C0CF1020C08BF21
:1058F0004CEBD37C04E04FF0080C01E04FEAD37C82
:105900000CEB4C0526FA05F606F00706B6F1040C7A
:1059100006D20EEB860CBDE870404CF0010C6047DF
:10592000DFE80CF0090B02024FF000414FF00000DD
:10593000A1F5002170BD19461046012851EB010464
:1059400018BFD4F5001484BF002001F0004170BDE1
:105950000808A0F500114FEA3101704753EA010C25
:1059600017D41CF5801F58BFBCF5801F00F10680BE
:105970008B4218BF704708BF8242704707D713F5A4
:10598000801F58BF11F5801F19D48B4270479B426E
:1059900070471CF5801F08D5BCF5801FF7D59942CC
:1059A00018BF704708BF904270474FF4001C1CEBB3
:1059B000430F38BF1CEB410F01D2994270470FB41F
:1059C0000CBC03BCFFF76BBF91EA030F10B581F06D
:1059D00000413FF541AE83F0004300F009B80000FC
:1059E00010B591EA030F48BF83F000433FF534AE92
:1059F000841A71EB030C07D212198CF0004C43EBA4
:105A00000C03001B61EB0C01DFF8A4E14FEA115419
:105A1000A4EB135C1EEA430F18BF9EEA445F00F03C
:105A2000B08023EA6E03524221EA0451C3EB6E03B5
:105A300038BF5B1EDCF1200E25D322FA0CFE10EBE2
:105A40000E0043FA0CFE41EB0E01CCF1200E03FADE
:105A50000EFE10EB0E0051F10001CCF1200E29D406
:105A600012FA0EF201EB0451BDE8104058BF704726
:105A7000401C1CBFB2F1004F704700280CBF491CEE
:105A800020F00100704712EB020E43EB030218BF37
:105A90004FF0010E4EEA4202ACF1200CDCF11E0E7A
:105AA00054D943FA0CFE10EB0E0051F1FF31CCF14A
:105AB0001E0ED5D50EF1010E12FA0EFE404141EB3D
:105AC000010101EB445C5FEA5C5C10D910EBDE7015
:105AD00001EB045138BFBEF1004FBDE8104018BFC4
